:020000040800F2
:100000000040002005040008610C0008630C000893
:1000100000000000000000000000000000000000E0
:10002000000000000000000000000000650C000857
:100030000000000000000000670C0008690C0008C8
:10004000550400085504000855040008550400082C
:10005000550400085504000855040008550400081C
:10006000550400085504000855040008550400080C
:1000700055040008550400085504000855040008FC
:1000800055040008550400085504000855040008EC
:1000900055040008550400085504000855040008DC
:1000A00055040008550400085504000855040008CC
:1000B00055040008550400085504000855040008BC
:1000C00010B5064C2378002B07D1054B002B02D02E
:1000D000044800E000BF0123237010BD7800002019
:1000E0000000000094340008044B10B5002B03D02E
:1000F0000349044800E000BF10BDC04600000000F6
:100100007C00002094340008002243088B4274D302
:1001100003098B425FD3030A8B4244D3030B8B4208
:1001200028D3030C8B420DD3FF22090212BA030C11
:100130008B4202D31212090265D0030B8B4219D3F2
:1001400000E0090AC30B8B4201D3CB03C01A524112
:10015000830B8B4201D38B03C01A5241430B8B425A
:1001600001D34B03C01A5241030B8B4201D30B0343
:10017000C01A5241C30A8B4201D3CB02C01A52416A
:10018000830A8B4201D38B02C01A5241430A8B422D
:1001900001D34B02C01A5241030A8B4201D30B0216
:1001A000C01A5241CDD2C3098B4201D3CB01C01A30
:1001B000524183098B4201D38B01C01A524143093A
:1001C0008B4201D34B01C01A524103098B4201D328
:1001D0000B01C01A5241C3088B4201D3CB00C01A95
:1001E000524183088B4201D38B00C01A524143080D
:1001F0008B4201D34B00C01A5241411A00D2014632
:10020000524110467047FFE701B5002000F0F0F8BA
:1002100002BDC0460029F7D076E7704703460B437E
:100220007FD4002243088B4274D303098B425FD3EF
:10023000030A8B4244D3030B8B4228D3030C8B421B
:100240000DD3FF22090212BA030C8B4202D3121201
:10025000090265D0030B8B4219D300E0090AC30BD6
:100260008B4201D3CB03C01A5241830B8B4201D383
:100270008B03C01A5241430B8B4201D34B03C01A6C
:100280005241030B8B4201D30B03C01A5241C30AE4
:100290008B4201D3CB02C01A5241830A8B4201D355
:1002A0008B02C01A5241430A8B4201D34B02C01A3F
:1002B0005241030A8B4201D30B02C01A5241CDD2E4
:1002C000C3098B4201D3CB01C01A524183098B422F
:1002D00001D38B01C01A524143098B4201D34B0118
:1002E000C01A524103098B4201D30B01C01A52417B
:1002F000C3088B4201D3CB00C01A524183088B4202
:1003000001D38B00C01A524143088B4201D34B00EA
:10031000C01A5241411A00D201465241104670475C
:100320005DE0CA0F00D04942031000D34042534061
:1003300000229C4603098B422DD3030A8B4212D321
:10034000FC22890112BA030A8B420CD38901921153
:100350008B4208D3890192118B4204D389013AD090
:10036000921100E08909C3098B4201D3CB01C01A65
:10037000524183098B4201D38B01C01A5241430978
:100380008B4201D34B01C01A524103098B4201D366
:100390000B01C01A5241C3088B4201D3CB00C01AD3
:1003A000524183088B4201D38B00C01A5241D9D2EB
:1003B00043088B4201D34B00C01A5241411A00D26C
:1003C0000146634652415B10104601D34042002B68
:1003D00000D54942704763465B1000D3404201B5E7
:1003E000002000F005F802BD0029F8D016E770479C
:1003F0007047C0460023C25C0133002AFBD1581E5F
:10040000704700000D4885460D480E490E4A0023EE
:1004100002E0D458C4500433C4188C42F9D30B4AB8
:100420000B4C002301E013600432A242FBD300F026
:10043000F7FC02F0E9FB00F0C7FAFEE700400020FD
:10044000000000207800002004360008780000201A
:10045000C0010020FEE7000010B503000B4A12683F
:10046000002A08D0094A1068C3186A46934206D881
:10047000064A136010BD054A05491160F2E702F013
:10048000BDFB0C23036001204042F3E794000020F1
:10049000C001002010B586B0040017236B44002271
:1004A0001A70FA2292000292012201920093022312
:1004B000074AE821006801F03DF8002804D1054B07
:1004C0005B68636006B010BD024B1B686360F9E7B0
:1004D000EEEE00000000002010B586B004001723E7
:1004E0006B4480221A70FA22920002920122019239
:1004F00000930223074AE821006801F01BF8002856
:1005000004D1054B5B68636006B010BD024B9B686D
:100510006360F9E7310400000000002010B586B0E8
:1005200017246C44002323700068FA239B00029375
:100530000123019300940133064AE82101F0DEF81B
:100540000023E356002B02DB002006B010BD012083
:10055000FBE7C0463104000000B587B005AB197059
:100560005A700068FA2292000292022201920093CD
:100570000223034AE82100F0DDFF07B000BDC046BA
:100580003D06000070B586B004000E00150005ABF6
:1005900000221A80FA229200029202220192009313
:1005A00002230F4AE821006801F0A8F8002806D0CD
:1005B00005AB1A7832705B782B7006B070BD0130D5
:1005C00000F08EFC2068FA239B0002930223019323
:1005D00005AB00930223024AE82101F08FF8E7E718
:1005E0003D06000070B586B00E00150005AC002376
:1005F00005930068FA239B0002930423019300945F
:10060000023B1622E82101F079F822781202637881
:1006100013433380A2781202E37813432B8006B091
:1006200070BD00B587B017236B4445221A7000686F
:10063000FA229200029201220192009302230F32C9
:10064000E82100F077FF07B000BD000000B583B0DF
:1006500008220021684602F0FBFA1148114B0360A2
:1006600000F09CFC002812D100230093019300228B
:1006700069460B4800F0A6FC00280BD11022694601
:10068000074800F09FFC002807D103B000BD00F030
:10069000CDFAE9E700F0CAFAF0E700F0C7FAF4E7AC
:1006A000A80000200074004010B588B00400142297
:1006B000002103A802F0CCFA2268114B9A4201D023
:1006C00008B010BD0F4BD969802080050143D96166
:1006D000DA6902400192019A5A69802189020A432B
:1006E0005A615B690B400293029B302303932D3BBD
:1006F0000493902003A9C00500F082FCE0E7C04607
:100700000074004000100240F0B58BB014220021AC
:1007100005A802F09DFA434B59698020000301436C
:1007200059615A6902400092009A59698020C003B9
:10073000014359615A6902400192019A5969802026
:100740008002014359615A6902400292029A596932
:100750008020C002014359615A6902400392039A02
:100760005A69802149030A435A615B690B4004932B
:10077000049B8A26F600002231002B4800F013FD6E
:100780002A4D00228021280000F00DFD80239B01CE
:100790000593274B06930024079405A9280000F031
:1007A0002FFC244B059303270697079405A92800DF
:1007B00000F026FC204B05930697079405A990208E
:1007C000C00500F01DFC1D4B05930697079405A975
:1007D000154800F015FC0596012606960794089426
:1007E00005A9114800F00CFC802305930696079498
:1007F000089405A9280000F003FC8023DB00059382
:100800000694079405A99020C00500F0F9FB042385
:1008100005930697079405A9094800F0F1FB0BB072
:10082000F0BDC04600100240000400480008004827
:10083000000021107F1F0000C39A0000AFF80000E5
:10084000000C004810B51448144B0360144B43606F
:10085000002383600122C260036143618361C3613D
:10086000036200F001FE00280CD100210A4801F0CB
:1008700027F8002809D10021074801F04DF8002889
:1008800006D110BD00F0D2F9EFE700F0CFF9F2E7A2
:1008900000F0CCF9F5E7C046BC0000200054004051
:1008A000FB3E200010B588B004001422002103A8EC
:1008B00002F0CEF92268134B9A4201D008B010BD65
:1008C000114C62698021C9020A43626163690B406D
:1008D0000193019BC0239B00039312230493113BBC
:1008E000059303220692079303A9084800F088FBAA
:1008F000E269802189030A43E261E3690B400293C4
:10090000029BDBE700540040001002400004004856
:1009100010B5FA23DB0098420AD80003FA218900B7
:10092000FFF77CFC80B280235B01984203D810BDA6
:1009300080200001FBE780204001F8E770B505004A
:100940000E00032000F0CCFA002404E00134E4B2ED
:10095000280000F0C5FA80219020C900C00500F0F1
:100960001BFC002801D1B442F0D370BD30B599B062
:10097000302200210CA802F06BF91022002107A8F8
:1009800002F066F91C220021684602F061F9222576
:100990000B9501230E9313930F330F930BA800F0C5
:1009A000E5FF07230793043B0893002409940A9466
:1009B000012107A801F0A2FA009503940494684667
:1009C00001F074FB19B030BDF0B5A5B000F06AFAC3
:1009D000FFF7CCFFFFF798FE00F0D4F9FFF732FFE6
:1009E00000F046F9FFF732FE20A9814B0A0031CB17
:1009F00031C21B881380FA239B000E227D4802F02F
:100A000011F87D4C1021200000F0D3FB8021C9009B
:100A1000200000F0CEFB8021784800F0CAFB402186
:100A2000200000F0C6FB1EA8754B020012CB12C2BC
:100A3000FFF774FD0400032000F052FA002C1ED1D1
:100A400064210520FFF77AFF1EA8FFF745FD1F9AD6
:100A50006C4B9A4213D006A96B4B0A0031CB31C2C2
:100A60001B781370FA23634C9B000D22200001F0C9
:100A7000D9FF642304221F99200001F0D3FF6421D1
:100A80000520FFF75BFF1EA8FFF704FD50220021A1
:100A90000AA802F0DDF827256D4400262E70642197
:100AA0000520FFF74BFFFA24A400029401230193D1
:100AB00000950422E821554800F020FE2B78544A86
:100AC00050210AA802F0CCF80AA8FFF793FC82B2E2
:100AD00023000AA9474801F0A5FF64210520FFF77C
:100AE0002DFF1EA8FFF79DFD64210520FFF726FFBF
:100AF000484D2A7869781EA8FFF72EFD6B782A7872
:100B00000092454A50210AA802F0AAF80AA8FFF765
:100B100071FC82B223000AA9364801F083FF262720
:100B20006F443E7025256D442E7064210520FFF72B
:100B300005FF2A0039001EA8FFF724FD64210520C7
:100B4000FFF7FCFE1EA8FFF7A5FC3B782A78009271
:100B5000324A50210AA802F083F80AA8FFF74AFC9B
:100B600082B223000AA9234801F05CFF8021902073
:100B7000C900C00500F010FB0128F7D116246C4411
:100B80000023238006AF3B803A0021001EA8FFF718
:100B900029FD1EA8FFF77EFC25882800FFF7B8FE78
:100BA00000902B001E4A50210AA802F059F80AA80A
:100BB000FFF720FCFA26B60082B20E4D33000AA9D8
:100BC000280001F02FFF23883A880092154A50210F
:100BD0000AA802F045F80AA8FFF70CFC82B233001D
:100BE0000AA9280001F01EFF0F4B01221A70BDE771
:100BF000A035000848010020000400480008004813
:100C0000AC340008EC340008B0350008BC0000200B
:100C1000343500080C0000204C350008643500080D
:100C200080350008943500089C00002070470000C3
:100C300082B00A4B996901221143996199690A406E
:100C40000092009ADA69802149050A43DA61DB697A
:100C50000B400193019B02B07047C0460010024058
:100C60007047FEE77047704710B500F02BF910BDD4
:100C700000B58BB01022002106A801F0E9FF082280
:100C8000002104A801F0E4FF10220021684601F0D1
:100C9000DFFF2148214B0360002343608360C36072
:100CA00003614361836101F08BFB002825D1802320
:100CB0005B01069306A9184801F056FC00281FD1D5
:100CC000154801F097FB00281DD1002304930593DC
:100CD00004A9114801F0D4FC002817D10023009387
:100CE0000122019202930393002269460A4801F00F
:100CF000CBFB00280DD10BB000BDFFF797FFD6E767
:100D0000FFF794FFDCE7FFF791FFDEE7FFF78EFFC9
:100D1000E4E7FFF78BFFEEE708010020002C01401D
:100D200010B588B004001422002103A801F090FF40
:100D30002268124B9A4201D008B010BD104B99693D
:100D400080200001014399619A6902400192019A51
:100D50005A69802189020A435A615B690B400293F8
:100D6000029B80235B000393FE3B04930793902038
:100D700003A9C00500F044F9DEE7C046002C01409D
:100D80000010024010B50C480C4B036096231B0268
:100D9000436000238360C36003610C22426183616E
:100DA000C3610362436201F0F1FE002800D110BD6F
:100DB000FFF73CFFFBE7C04648010020004400402D
:100DC00010B588B004001422002103A801F040FFF0
:100DD0002268114B9A4201D008B010BD0F4BD9695F
:100DE000802292021143D961D96911400191019980
:100DF0005969114359615B691A400292029B0C23A5
:100E000003930A3B0493013B0793902003A9C00579
:100E100000F0F6F8E0E7C046004400400010024051
:100E2000114B1A6801210A431A605A680F480240A0
:100E30005A601A680E4802401A601A680D4802404B
:100E40001A605A680C4802405A60DA6A0F208243DE
:100E5000DA621A6B094802401A635A6B8A435A6372
:100E600000229A607047C046001002400CB8FF088C
:100E7000FFFFF6FEFFFFFBFFFFFFC0FF2CFEFCFFA6
:100E800010B5040001F0FCF8FA218900FFF73CF9E5
:100E900000F068F8012000222100404200F032F802
:100EA000002010BD10B5064A136810210B431360D3
:100EB0000020FFF7E5FFFFF7BBFE002010BDC04696
:100EC00000200240024A1368013313607047C04695
:100ED000B8010020014B18687047C046B8010020D7
:100EE00030B583B00190FFF7F5FF0500019C631C4E
:100EF00000D00134FFF7EEFF401BA042FAD303B04D
:100F000030BD000070B5002811DB8408134DC034DB
:100F1000A400625903231840C000FC331E00864021
:100F2000B24389010B4083401343635170BDC0B28B
:100F30000F220240083A920806329200084BD3185A
:100F40005D6803242040C000FF2214008440A543B4
:100F500089010A4082402A435A60E7E700E100E045
:100F600000ED00E001380A4B98420FD8094A506062
:100F70000948036A1B021B0AC02109060B430362CE
:100F80000023936007331360002070470120FCE7C3
:100F9000FFFFFF0010E000E000ED00E010B5041ED0
:100FA0000ED00379002B07D0022323710023236185
:100FB00001332371002010BD4371FFF775FBF3E788
:100FC0000120F8E770B54379012B14D00125457154
:100FD0000223037106683368084C9440A3431C0045
:100FE0000B6849680B43934023433360057100232A
:100FF0004371002070BD0220FCE7C046FE0F0000D8
:10100000F0B5C64600B582B0002338E0042600E003
:101010000026AE4035003D430234A400574EA55192
:10102000574C25684246D4432E0026404A68D203D6
:1010300002D5424615432E00514D2E606D682E009C
:1010400026404A68920302D5424615432E004C4D75
:101050006E60AD682E0026404A68D20202D5424634
:1010600015432E00464DAE60ED682C404A68920252
:1010700002D542462A431400414AD46001330A682B
:101080001400DC4076D001259D402A409046F5D0E2
:101090004C68022C01D0122C0ED1DC080834A400BC
:1010A000275807261E40B6000F22B24097430A6910
:1010B000B24016003E43265002685F00032426001B
:1010C000BE40F643324094464A681440BC406246F3
:1010D000144304604C68621E012A03D9112C01D00C
:1010E000122C10D184683440A446CC68BC406246BF
:1010F000144384604468AC434A68120901251540D2
:101100009D4025434560C46826408C68BC403443FC
:10111000C4604A68D200B1D51A4DAE690124264395
:10112000AE61AD692C400194019C9C08A51CAD00EA
:10113000124EAF5903261E40B5000F26AE40B743EE
:101140009026F605B04200D162E70F4EB0420BD0B8
:101150000E4EB0420AD00E4EB04209D00D4EB042F3
:1011600000D153E7052654E7012652E7022650E74F
:1011700003264EE702B004BC9046F0BD00000140DB
:10118000000401400010024000040048000800482C
:10119000000C00480010004803690B4201D10020F8
:1011A00070470120FCE7002A01D18162704781610C
:1011B000FCE7436959404161704703689A699207A7
:1011C00001D500229A6203689A69D20703D49A690A
:1011D00001210A439A61704730B51D0004686068B8
:1011E000064B18408905890D12040B0013432B434D
:1011F000039A13430343636030BDC046009800FC6C
:1012000070B504000E00150003689B69DB0616D557
:1012100023689A69920614D4731CF9D0002E04D066
:10122000FFF758FE401BB042F2D941232022E2547E
:1012300000232232A354023AA354032018E00020D2
:1012400016E01022DA6123682025DD612000FFF717
:10125000B4FF2268536807490B405360042363645A
:101260003D33E55400234222A354023AA354012003
:1012700070BDC04600E800FE70B504000D00160009
:1012800023689B699B071CD4320029002000FFF7CC
:10129000B7FF002817D16B1CF2D0002D04D0FFF748
:1012A00019FE801BA842EBD9636C202213436364B0
:1012B0004123E25400232232A354023AA3540320D0
:1012C00000E0002070BD0120FCE7F8B506000C002E
:1012D00017001D0033689B6923401B1B5A42534172
:1012E000BB4213D16B1CF5D0002D05D0FFF7F2FDEA
:1012F000069BC01AA842EDD941232022F2540023B4
:101300002232B354023AB354032000E00020F8BD67
:1013100070B582B0040016001D008023EAB2802060
:10132000800100905B042000FFF756FF079A0699A2
:101330002000FFF7A1FF002805D0636C042B26D105
:10134000012002B070BD012D0ED12368F6B29E625D
:10135000079B0093069B002280212000FFF7B5FF2A
:101360000028EED00320ECE72368320A9A62079A3D
:1013700006992000FFF780FF002804D0636C042B3F
:1013800007D10120DDE72368F6B29E62E0E7032083
:10139000D7E70320D5E770B582B0040016001D0022
:1013A000DAB280239B0100930023FFF715FF079A11
:1013B00006992000FFF760FF002805D0636C042B1E
:1013C00026D1012002B070BD012D0ED12368F6B2E6
:1013D0009E62079B0093069B002240212000FFF79E
:1013E00074FF0028EED00320ECE72368320A9A62EB
:1013F000079A06992000FFF73FFF002804D0636C8E
:10140000042B07D10120DDE72368F6B29E62E0E7F6
:101410000320D7E70320D5E770B505000C001600C0
:101420002B689B699B061AD4320021002800FFF725
:10143000E7FE002815D1002C04D0FFF74BFD801BE0
:10144000A042EDD96B6C202213436B644123EA5414
:1014500000232232AB54023AAB54032070BD00206B
:10146000FCE70120FAE7000010B5041E59D0412323
:10147000C35C002B43D041232422E254226813682A
:1014800001218B4313602268274B61680B40136175
:101490002268936825490B409360E368012B34D0A0
:1014A000226884231B02A1680B439360E368022B2C
:1014B00032D0226851681E4B0B4353602268D368B8
:1014C0001A490B40D360236962691343A26912026F
:1014D00021681343CB602268E369216A0B431360E0
:1014E0002268136801210B431360002363644122C7
:1014F0001F31A15423630132A354002010BD403397
:101500000022C254FFF7CEF9B5E7226880231B0200
:10151000A1680B439360C9E72368802212015A60D7
:10152000C7E70120EAE7C046FFFFFFF0FF7FFFFFAC
:1015300000800002F0B587B0050003910492059386
:101540000CAB10CB1E884123C35C202B00D0C1E024
:10155000002C00D1C1E0002E00D1C0E02033C35CDC
:10156000012B00D1BDE040230122C254FFF7B2FCA1
:101570000700802100901923012209022800FFF7AB
:10158000A4FE002800D0AEE041232122EA5401331A
:101590001F32EA5400236B646C626E856B630197A3
:1015A0000E980090059B049A03992800FFF7B0FE5F
:1015B00000280CD06B6C042B04D13C330022EA547D
:1015C000012088E040230022EA54032083E06B8D51
:1015D0009BB2FF2B0BD9FF232B857F3B0022009270
:1015E0005B04FF3203992800FFF7F6FD22E06A8DC5
:1015F00092B22A858023D2B2002100919B040399E4
:101600002800FFF7E9FD15E06B6C042B00D06CE0BF
:10161000012060E06A8D92B22A858023D2B2002137
:1016200000919B0403992800FFF7D6FD6B8D9BB2B8
:10163000002B33D03A000E992800FFF71DFE00283A
:10164000E2D16B6A5A1C6A622A681B7893626B8DBE
:10165000013B9BB26B852B8D013B9BB22B85002BF5
:10166000E4D16B8D9BB2002BE0D000970E9B002243
:1016700080212800FFF729FE002838D16B8D9BB20E
:10168000FF2BC7D9FF232B857F3B002200925B04F1
:10169000FF3203992800FFF79FFDC7E73A000E9934
:1016A0002800FFF7B9FE002804D06B6C042B20D172
:1016B000012010E02B682022DA6129684B680E4C6B
:1016C00023404B604123EA5400232232AB54023AB8
:1016D000AB5400E0022007B0F0BD0120FBE7012081
:1016E000F9E70220F7E70320F5E70320F3E70320FB
:1016F000F1E70320EFE7C04600E800FEF0B587B051
:1017000004000391049205930CAB20CB1F88412366
:10171000C35C202B00D0BFE0002D00D1BFE0002F24
:1017200000D1BEE02033C35C012B00D1BBE04023DD
:101730000122C254FFF7CEFB06008021009019233E
:10174000012209022000FFF7C0FD002800D0ACE014
:1017500041232222E25401331E32E2540023636407
:1017600065626785636301960E980090059B049AF5
:1017700003992000FFF70FFE00280CD0636C042BA8
:1017800004D13C330022E254012086E040230022B1
:10179000E254032081E0638D9BB2FF2B0CD9FF2321
:1017A00023857F3B9022920100925B04FF220399E4
:1017B0002000FFF711FD1DE0628D92B2228580238B
:1017C000D2B29021890100919B0403992000FFF778
:1017D00003FD0FE0628D92B222858023D2B20021F8
:1017E00000919B0403992000FFF7F6FC638D9BB2E8
:1017F000002B35D000960E9B002204212000FFF71D
:1018000064FD002853D123685A6A636A591C6162D7
:101810001A70238D013B9BB22385628D013A92B2EF
:101820006285002BE2D1638D9BB2002BDED0009647
:101830000E9B002280212000FFF747FD002838D1B1
:10184000638D9BB2FF2BC5D9FF2323857F3B0022ED
:1018500000925B04FF3203992000FFF7BDFCC5E74F
:1018600032000E992000FFF7D7FD002804D0636CEA
:10187000042B20D1012010E023682022DA612168A6
:101880004B680E4D2B404B604123E2540023223223
:10189000A354023AA35400E0022007B0F0BD012097
:1018A000FBE70120F9E70220F7E70320F5E7032033
:1018B000F3E70320F1E70320EFE7C04600E800FE6E
:1018C000F0B54123C35C202B20D12033C35C012B16
:1018D0001ED0402401220255412524234355066889
:1018E000336893433360066833680A4F3B40336084
:1018F000066833681943316001680B6813430B6055
:101900002023435500230355002000E00220F0BDB2
:101910000220FCE7FFEFFFFFF0B54123C35C202B63
:101920001ED12033C35C012B1CD040240122025560
:101930004125242343550668336893433360066882
:101940003368094F3B4009021943316001680B6855
:1019500013430B602023435500230355002000E070
:101960000220F0BD0220FCE7FFF0FFFF70B582B05F
:1019700004000368DB072BD5B34B5A680C231340D4
:10198000042B1DD0B04B5A680C231340082B0ED0EB
:101990006368012B41D0002B56D1AB4B1A68AB4981
:1019A0000A401A601A68AA490A401A603BE0A64B2E
:1019B0005B68C02252021340802252029342E7D158
:1019C000A14B1B689B0303D56368002B00D139E250
:1019D00023689B0778D59C4B5B680C221A4262D027
:1019E000994B5A680C231340082B53D0E368002B03
:1019F00000D18BE0944A136801210B431360FFF779
:101A000069FA0500904B1B689B0776D4FFF762FAD2
:101A1000401B0228F6D9032017E28B4A1168802365
:101A20005B020B4313606368002B25D0FFF752FA6B
:101A30000500854B1B689B03CAD4FFF74BFA401B7C
:101A40006428F6D9032000E2052B09D07E4B1A68E2
:101A50007E490A401A601A687D490A401A60E2E726
:101A6000794B19688022D2020A431A6019688022D1
:101A700052020A431A60D6E7FFF72CFA0500724BB0
:101A80001B689B03A4D5FFF725FA401B6428F6D9F1
:101A90000320DAE16C4B5B68C022520213408022C3
:101AA00012029342A2D1684B1B689B0704D5E368DE
:101AB000012B01D00120C8E163490B68F822934350
:101AC0002269D20013430B6023681B0744D5E369E6
:101AD000002B2ED05C4A536A01210B435362FFF75F
:101AE000F9F90500584B5B6A9B0735D4FFF7F2F90B
:101AF000401B0228F6D90320A7E153490B68F822BE
:101B000093432269D20013430B60DDE74E4A13680A
:101B100001218B431360FFF7DDF905004A4B1B6879
:101B20009B07D1D5FFF7D6F9401B0228F6D9032031
:101B30008BE1454A536A01218B435362FFF7CAF98F
:101B40000500414B5B6A9B0706D5FFF7C3F9401BB5
:101B50000228F6D9032078E123685B0700D47FE0F0
:101B6000394BDB69DB001DD4374AD1698020400541
:101B70000143D161D36903400193019B0125354B9A
:101B80001B68DB0510D5A368012B21D0002B36D1B3
:101B90002D4B1A6A01218A431A621A6A03318A4359
:101BA0001A621AE00025EAE72A4A116880235B00DE
:101BB0000B431360FFF78EF90600264B1B68DB050D
:101BC000E1D4FFF787F9801B6428F6D903203CE1B4
:101BD0001D4A136A01210B431362A368002B24D012
:101BE000FFF778F90600184B1B6A9B0736D4FFF7FE
:101BF00071F9801B184B9842F5D9032025E1052B7C
:101C000009D0114B1A6A01218A431A621A6A0331F8
:101C10008A431A62E1E70C4B1A6A04210A431A62EA
:101C20001A6A03390A431A62D7E7FFF753F9060025
:101C3000054B1B6A9B0711D5FFF74CF9801B064B20
:101C40009842F5D9032000E100100240FFFFFEFF9B
:101C5000FFFFFBFF0070004088130000012D3AD009
:101C60002368DB0610D56369012B3AD0053358D1C0
:101C7000784A536B04218B435363536BF4318B438A
:101C8000A169C9000B43536323689B0600D482E01B
:101C9000704B5A680C2313400C2B60D06D4B5A6864
:101CA0000C231340082B53D0236A002B60D0694AC1
:101CB000516B80235B020B435363FFF70BF9050065
:101CC000644B5B6BDB0366D4FFF704F9401B02280F
:101CD000F6D90320B9E05F4AD3695F490B40D3616D
:101CE000BEE75C4B5A6B04210A435A635A6B0339B3
:101CF0000A435A63FFF7EEF80500564B5B6B9B07F0
:101D000006D4FFF7E7F8401B0228F6D903209CE031
:101D100050494B6BF8229343A269D20013434B63A3
:101D2000B2E74C4B5A6B04210A435A635A6B03398E
:101D30008A435A63FFF7CEF80500464B5B6B9B075F
:101D4000A2D5FFF7C7F8401B0228F6D903207CE094
:101D5000404B5B68C022520213409342A4D13D4BDA
:101D60005B6BDB0317D5236A012B14D001206CE0D9
:101D7000384A536B39490B405363FFF7ABF8050002
:101D8000344B5B6BDB0306D5FFF7A4F8401B02283E
:101D9000F6D9032059E0636A002B55D02D4A5168CB
:101DA0000C220A40082A52D0022B12D0294A13686A
:101DB0002B490B401360FFF78DF80400254B1B687F
:101DC0009B013DD5FFF786F8001B0228F6D90320BA
:101DD0003BE0204A136822490B401360FFF77AF872
:101DE00005001C4B1B689B0106D5FFF773F8401BD1
:101DF0000228F6D9032028E0164BDA6A0F218A431D
:101E0000216B0A43DA625A6816490A40E16AA06AFD
:101E100001430A435A601968802252040A431A6037
:101E2000FFF758F804000B4B1B689B0106D4FFF723
:101E300051F8001B0228F6D9032006E0002004E038
:101E4000002002E0012000E0002002B070BD01206F
:101E5000FBE7C04600100240FFFFFFEFFFFFFEFF61
:101E6000FFFFFFFEFF7FC2FF30B589B004AA1F4B02
:101E7000180032C832C2110002680A606A46103384
:101E800013CB13C21B681360194B5A680C23134001
:101E9000082B04D00C2B26D0164809B030BD910C6D
:101EA0000F23194004A8445C1149C96A0B406946D4
:101EB000C95CC0235B021A4080235B029A4208D0AF
:101EC000C0235B029A4209D00A48FEF71DF960431D
:101ED000E3E70848FEF718F96043DEE70648FEF737
:101EE00013F96043D9E70448D7E7C046CC3400086B
:101EF0000010024000127A00006CDC0270B5050090
:101F00000C00594B1A68012313408B420BD25649DF
:101F10000B680122934323430B600B681A40A242D3
:101F200001D0012070BD2B689B0706D54F4A53682E
:101F3000F0218B43A9680B4353602B68DB0763D503
:101F40006B68012B09D0022B28D0032B2CD0474AD9
:101F50001268920705D40120E4E7444A126892030C
:101F60007FD542494A680320824313434B60FEF702
:101F7000B1FF06006B68012B1CD0022B28D0032B6D
:101F800034D03A4B5B680C221A423DD0FEF7A2FFD8
:101F9000801B374B9842F4D90320C3E7334A1268B9
:101FA0009201DED40120BDE7304A526BD203D8D46F
:101FB0000120B7E72D4B5A680C231340042B23D084
:101FC000FEF788FF801B2A4B9842F3D90320A9E72C
:101FD000264B5A680C231340082B15D0FEF77AFFC6
:101FE000801B234B9842F3D903209BE71F4B5A6871
:101FF0000C2313400C2B07D0FEF76CFF801B1C4BEF
:102000009842F3D903208DE7174B1A680123134038
:10201000A3420BD914490B680122934323430B605D
:102020000B681A40A24201D001207BE72B685B07B6
:1020300006D50E4A53680F490B40E9680B435360BD
:10204000FFF712FF094B5A6812090F2313400A4A7F
:10205000D35CD840094B18600020FEF711FF002028
:1020600060E701205EE7C046002002400010024009
:1020700088130000FFF8FFFFB434000810000020B0
:10208000014B18687047C0461000002010B5FFF7DC
:10209000F7FF044B5A68120A07231340024AD35C25
:1020A000D84010BD00100240C434000870B582B0A2
:1020B00004000368DB0335D54B4BDB69DB0066D4DA
:1020C000494AD169802040050143D161D369034069
:1020D0000193019B0125454B1B68DB0559D5424BFC
:1020E0001B6AC0229200134013D061680A409A42D2
:1020F0000FD03D4B186A3E4A02401E6A80214902B9
:1021000031431962196A3B4E314019621A62C307A2
:1021100053D4354A136A36490B4061680B43136246
:10212000012D59D02368DB0706D52F4A136B0321F5
:102130008B43A1680B43136323689B0706D52A4A88
:10214000136B2D490B40E1680B43136323689B0617
:1021500006D5254A136B10218B4321690B4313636A
:1021600023689B0306D5204A136B80218B43A1690A
:102170000B43136323685B0533D51B4A136B402164
:102180008B4361690B431363002002B070BD0025CF
:10219000A1E7164A116880235B000B431360FEF72A
:1021A00099FE0600114B1B68DB0598D4FEF792FEE2
:1021B000801B6428F6D90320E7E7FEF78BFE0600B4
:1021C000094B1B6A9B07A4D4FEF784FE801B0B4BB4
:1021D0009842F5D90320D8E7D36909490B40D36168
:1021E000A0E70020D1E7C046001002400070004088
:1021F000FFFCFFFFFFFFFEFFFFFFFCFF8813000057
:10220000FFFFFFEF30B5036A046A0125AC430462A7
:102210008469EF35AC43120122430A24A3431943D6
:102220008261016230BD000070B5046A1025AC43C4
:1022300004628569046A084E354012022A43074D3C
:102240002A401B071B0C1343A022944309010A4098
:1022500022438361026270BDFFFCFFFFFF0FFFFF9F
:1022600030B5036A1024A34303628469036A054DF1
:102270002C4012032243A024A34309011943826185
:10228000016230BDFF0FFFFF70B5046A0B4D2C409B
:102290000462C469056A0326B4432243F024A243BE
:1022A0001C01FF2323401A43054B2B400902A024A5
:1022B000240121401943C261016270BDFFFEFFFF8E
:1022C000FFF5FFFF70B5046A0B4D2C400462C56931
:1022D000046A0A4E354012022A43094D2A401B0760
:1022E0001B0C1343074A22400903A0242402214067
:1022F0001143C361016270BDFFEFFFFFFFFCFFFFF1
:10230000FF0FFFFFFF5FFFFF8368702293430722E9
:102310001143194381607047704700000368214AE8
:10232000904206D08022D205904202D01E4A9042AE
:1023300003D1702293434A6813431A4A904212D041
:102340008022D20590420ED0174A90420BD0174AF5
:10235000904208D0164A904205D0164A904202D0C8
:10236000154A904203D1154A1340CA68134380228C
:1023700093434A69134303608B68C3620B688362AB
:10238000084B984208D00A4B984205D0094B984216
:1023900002D0094B984201D10B69036301234361C9
:1023A0007047C046002C014000040040002000405F
:1023B000004001400044014000480140FFFCFFFF95
:1023C00070B5041E14D03D23C35C002B0AD03D25FC
:1023D00002236355211D2068FFF7A0FF01236355E9
:1023E000002070BD3C330022C254FEF799FCEEE79A
:1023F0000120F6E770B5041E14D03D23C35C002B0A
:102400000AD03D2502236355211D2068FFF786FF72
:1024100001236355002070BD3C330022C254FFF7F6
:102420007BFFEEE70120F6E7F0B51700046A01250F
:10243000AC4304628469056A104EB0420CD080221D
:10244000D205904208D00E4A904205D00D4A9042E3
:1024500002D00122224303E00322944322003A43A4
:10246000F024A2431C01FF2323401A430A24A5435E
:102470000C402C4382610462F0BDC046002C014038
:10248000000400400040014070B504000D003C23F2
:10249000C35C012B58D03C230121C15401330131CD
:1024A000C154002A1CD0042A2BD0082A3BD0EB6848
:1024B0006A6829680068FFF705FF2268D369234925
:1024C0000B40D3612168CB69AA6812021343CB6128
:1024D0003D230122E254013B0022E254002070BD62
:1024E000EB686A6829680068FFF79EFF22689369B5
:1024F0000C218B43936122689369A9680B43936114
:10250000E6E7EB686A6829680068FFF78DFE2268D5
:1025100093690E490B40936121688B69AA68120286
:1025200013438B61D4E7EB686A6829680068FFF79A
:10253000ABFE2268D3690C218B43D3612268D36937
:10254000A9680B43D361C3E70220C8E7FFF3FFFF8D
:1025500030B58468034D2C401B021A4311432143BC
:10256000816030BDFF00FFFF10B504003C23C35C59
:10257000012B00D17FE03C230122C2540133013200
:10258000C254026893683D48034093600B68402B37
:102590005DD010D9702B43D020D8502B4DD0602B5C
:1025A00036D1CA6849682068FFF75AFE6021206862
:1025B000FFF7AAFE2CE0102B53D008D9202B55D0C2
:1025C000302B25D130212068FFF79EFE20E0002B24
:1025D0001ED100212068FFF797FE19E080225201EA
:1025E000934210D080229201934211D1CB684A6865
:1025F00089682068FFF7ACFF226891688023DB01BF
:102600000B43936004E02268936807218B43936037
:102610003D230122E254013B0022E254002010BD80
:10262000CB684A6889682068FFF792FF2268936840
:1026300077218B430B439360EAE7CA6849682068B7
:10264000FFF7E0FD50212068FFF75EFEE0E7CA6873
:1026500049682068FFF7D6FD40212068FFF754FE47
:10266000D6E710212068FFF74FFED1E72021206830
:10267000FFF74AFECCE70220D1E7C0468800FFFF03
:10268000F0B53C23C35C012B1ED03C2201258554B0
:102690003D2402230355066873687027BB437360AB
:1026A000066873680F683B4373600668B3688027E9
:1026B000BB43B3600668B36849680B43B360055514
:1026C000002383540020F0BD0220FCE770B5040015
:1026D00083680269134342691343C2691343016863
:1026E0000A687348024013430B60226853687149BB
:1026F0000B40E1680B435360A269236A1A432168C7
:102700008B686D48034013438B6025686B4B9D427B
:1027100026D06B4B9D4237D06A4B9D4256D06A4BB8
:102720009D424FD0102380221202E16991424FD086
:10273000022B00D1A0E000D88EE0042B00D1A7E04E
:10274000082B00D0B2E06168480880231B029C4639
:102750006044FDF7D9FC0004000CE860002060E054
:102760005A4B1A6B03231340012B09D0002B05D0C1
:10277000022B07D0032B27D01023D4E70023D2E766
:102780000423D0E70823CEE7504B1B6BC0229202F4
:1027900013408022520293420ED009D98022920225
:1027A00093420BD0C0229202934209D10223BAE78E
:1027B000002B05D10023B6E70423B4E70823B2E7D2
:1027C0001023B0E70023AEE70223ACE70023AAE71B
:1027D000022B27D00FD9042B2FD0082B39D16368B7
:1027E000580880235B029C4660446168FDF78CFCBE
:1027F00083B200200CE0002B2BD1FFF747FC4000F8
:1028000063685B08C0186168FDF77EFC83B2002036
:102810000F22190091435B10083A13400B432268C2
:10282000D36070BD63685808294B9C46604461685A
:10283000FDF76AFC83B20020EAE7FFF715FB4000D2
:1028400063685B08C0186168FDF75EFC83B2002016
:10285000DEE701200023DBE7002B27D1FFF716FC82
:1028600063685B08C0186168FDF74EFC23680004CC
:10287000000CD8600020D4E761684808154B9C46DE
:102880006044FDF741FC0004000CE8600020C8E74C
:10289000FFF7EAFA63685B08C0186168FDF734FC6B
:1028A00023680004000CD8600020BAE70120B8E7D4
:1028B000F369FFEFFFCFFFFFFFF4FFFF0038014098
:1028C0000044004000480040004C0040001002401E
:1028D0000024F40000127A00436ADB0706D5026880
:1028E00053682C490B40816A0B435360436A9B0732
:1028F00006D50268536828490B40C16A0B435360F0
:10290000436A5B0706D50268536824490B40016B94
:102910000B435360436A1B0706D50268536820497E
:102920000B40416B0B435360436ADB0606D50268DC
:1029300093681C490B40816B0B439360436A9B0671
:1029400006D50268936818490B40C16B0B4393602E
:10295000436A5B060BD50268536814490B40016C4F
:102960000B43536080235B03026C9A420AD0436A94
:102970001B0606D5026853680D490B40816C0B435A
:1029800053607047026853680A490B40416C0B431F
:102990005360ECE7FFFFFDFFFFFFFEFFFFFFFBFFC4
:1029A000FF7FFFFFFFEFFFFFFFDFFFFFFFFFEFFFF7
:1029B000FFFFF7FFFFFF9FFFF0B5C64600B506001B
:1029C0000C0017009846069D3368DB6923401B1BEB
:1029D0005A425341BB421ED16B1CF5D0002D05D08D
:1029E000FEF778FA4346C01AA842EDD93268136858
:1029F0000B490B40136032689368A331FF318B435E
:102A0000936020236922B3540132B3544833002227
:102A1000F254032000E0002004BC9046F0BDC04604
:102A20005FFEFFFFF0B585B004000E0017001D002B
:102A30006923C35C202B59D100295AD0002A5AD0CF
:102A400080235B0182689A4213D06823E35C012BE8
:102A500053D068230122E2540023E3666933203215
:102A6000E254FEF737FA03905023E7520233E7525D
:102A70000AE00369002BE8D1CB07E6D5012036E058
:102A800033782268138501365223E35A9BB2002B18
:102A90001CD05222A35A013B9BB2A3520095039B28
:102AA000002280212000FFF787FF002827D1802304
:102AB0005B01A2689A42E3D12369002BE0D13388FD
:102AC000DB05DB0D226813850236DDE70095039BED
:102AD000002240212000FFF76FFF002811D1692359
:102AE0002022E254013B0022E25400E0022005B023
:102AF000F0BD0120FBE70120F9E70220F7E7032002
:102B0000F5E70320F3E7000030B583B004000023AD
:102B1000C366FEF7DFF905002368194A93420DD01A
:102B2000184A93420AD020236922A3540132A354A5
:102B300048330022E254002003B030BD1B681B075D
:102B400010D423681B685B07EDD580210E4B0093E2
:102B50002B000022C9032000FFF72EFF0028E2D03F
:102B60000320E9E78021084B00932B000022890312
:102B70002000FFF721FF0028E3D00320DCE7C04658
:102B80000038014000440040FFFFFF0110B5041E63
:102B900030D06923C35C002B22D069232422E25465
:102BA0002268136801218B4313602000FFF78EFD1C
:102BB000012814D0636A002B18D1226853680E498B
:102BC0000B405360226893682A218B4393602268EC
:102BD000136829390B4313602000FFF795FF10BDE0
:102BE00068330022C254FEF7EBF8D6E72000FFF767
:102BF00073FEE2E70120F2E7FFB7FFFF014B186821
:102C00007047C0461400002070B500260C4D0D4CD6
:102C1000641BA410A64209D1002600F03BFC0A4D1B
:102C20000A4C641BA410A64205D170BDB300EB583A
:102C300098470136EEE7B300EB5898470136F2E7C4
:102C4000FC350008FC350008FC350008003600089B
:102C500003001218934200D1704719700133F9E74D
:102C60000CB430B5164B9DB00C1E1D6808DA8B23D2
:102C700001202B6040421DB030BC08BC02B0184798
:102C8000822302A99B008B810023029008619C4251
:102C900000D0631E8B604B6101235B42CB81209A85
:102CA00021AB2800019300F06FF8431C01DA8B235D
:102CB0002B60002CDFD00023029A1370DBE7C046A4
:102CC00014000020F0B58E6885B007000C00039258
:102CD00001939E423CD890238A89DB001A4234D06B
:102CE0000325096923685B1A0293636902985D43AF
:102CF000EB0F5D19019B6D1001331B18AB4200D91E
:102D00001D00530532D52900380000F023FB061EB4
:102D100009D10C233B6040230120A2894042134388
:102D2000A38105B0F0BD029A216900F0ACFAA38935
:102D3000144A1A4080231343A381029B2661F6188C
:102D400026606561019EED1AA560019B9E4200D937
:102D5000019E32000399206800F09EFAA3680020CB
:102D60009B1BA36023689E192660DAE72A003800BF
:102D700000F04EFB061EE0D12169380000F0A0FAF9
:102D8000C7E7C0467FFBFFFFF0B5A1B003901D0071
:102D90008B890F0016001B0611D50B69002B0ED175
:102DA000402100F0D7FA38603861002805D10C23A3
:102DB000039A0138136021B0F0BD40237B610023EA
:102DC00008AC6361203363761033A3760795350032
:102DD0002B78002B01D0252B46D1AB1B05930CD0B3
:102DE000320039000398FFF76DFF431C00D1AEE0BD
:102DF0006269059B9446634463612B78002B00D184
:102E0000A5E0012200235242626004A95432521804
:102E10006E1C2360E360A3601370A3653178052204
:102E2000534800F025FA751C00281FD12268D306EC
:102E300004D5532304A95B1820211970130704D566
:102E4000532304A95B182B21197033782A2B16D031
:102E5000350000210A20E3682A786E1C303A092ADE
:102E60004ED9002918D010E00135B1E7404B226857
:102E7000C01A01238340134323602E00CEE7079B33
:102E8000191D1B680791002B01DB0B9304E05B42CB
:102E9000E3600223134323602B782E2B0AD16B7837
:102EA0002A2B35D1079B02351A1D1B680792002B70
:102EB0002BDB09932F4E29780322300000F0D8F93C
:102EC000002806D04023801B83402268013513432D
:102ED00023602978062228486E1C217600F0C8F964
:102EE00000283CD0254B002B25D10722079B073318
:102EF0009343083307936369049A9B18636166E7F9
:102F0000434301219B183500A6E701235B42D0E72C
:102F100000230A201A000135636029786E1C3039BD
:102F2000092903D9002BC5D00992C3E742430123E5
:102F300052183500F1E707AB00933A00104B21001F
:102F4000039800E000BF0490049B0133D3D1BB89F8
:102F50000D985B0600D42EE7012040422BE707AB1B
:102F600000933A00064B2100039800F079F8EAE755
:102F7000C8350008CE350008D23500080000000032
:102F8000C52C0008F7B5150001938A680B690090FD
:102F90000C00934200DA130022002B6043321278B7
:102FA000002A01D001332B6023689B0602D52B68D1
:102FB00002332B60062723681F4027D023004333AA
:102FC0001B785A1E93412268920630D42200019940
:102FD00043320098089EB047431C25D00623206842
:102FE0002A68E16803400025042B03D18D1AEB43C6
:102FF000DB171D40A3682269934201DD9B1AED187F
:103000000027BD4220D1002010E00137E3682A6884
:103010009B1ABB42D2DD220001231932019900988C
:10302000089EB047431CF0D101204042FEBD302035
:10303000E1184331087021005A1C45310978A21863
:10304000433202331170C1E7220001231A32019981
:103050000098089EB047431CE6D00137D1E7000036
:10306000F0B589B004920A004332059303900292AE
:103070000A7E0C000E9B6E2A00D186E01FD8632AC0
:1030800033D008D8002A00D18CE0582A4DD0250032
:1030900042352A7030E0642A01D0692AF7D11968D4
:1030A00025680A1D280629D508681A60002803DA51
:1030B0002D23029A404213706B4E0A274FE0732A69
:1030C00074D008D86F2A1FD0702AE0D12022096856
:1030D0000A43226003E0752A16D0782AD7D122004D
:1030E000782145321170614E22E025001A68423580
:1030F000111D196013682B70012365E008681A60C0
:103100006906D3D500B2D1E719682568081D186093
:1031100008682E0605D5544E08276F2A1BD00A27AB
:1031200019E06D06F7D580B2F5E745314E4E0A70CD
:1031300018682268011D00681960150621D5D3079B
:1031400002D520231A4322601027002803D1202310
:1031500022689A4322602300002243331A70636876
:10316000A360002B58DB04222168914321600028D2
:1031700054D1029D002B5AD02500337842352B7054
:1031800055E05506DBD580B2D9E71A680D68101DE9
:103190004969186013682E0601D5196002E06D06B2
:1031A000FBD519800023029D23614FE01A68111D91
:1031B0001960156800216268280000F059F800289D
:1031C00001D0401B6060636823610023029A137082
:1031D0003CE023692A0004990398059DA847431CF5
:1031E0003ED023689B0715D4079BE068984239DAE4
:1031F000180037E022000123193204990398059E34
:10320000B047431C2CD00135E368079A9B1AAB42A8
:10321000F0DCE9E70025F7E70028ADD0029D390092
:10322000FCF7F8FF735C013D2B700028F7D1082FE5
:1032300009D12368DB0706D563682269934202DC63
:103240003023013D2B70029B5B1B2361059B07AA6A
:1032500000932100049B0398FFF794FE431CB8D110
:103260000120404209B0F0BDD9350008EA35000818
:10327000C9B28218904201D10020704703788B4276
:10328000FBD00130F6E7002310B59A4200D110BD03
:10329000CC5CC4540133F8E710B5884202D98B18CE
:1032A000984203D3002307E08B5C8354013AFBD29E
:1032B00010BDCC5CC45401339A42FAD1F8E7000047
:1032C00070B50500002910D00C1F2368002B00DA10
:1032D000E418280000F0D4F81D4A1368002B05D12B
:1032E00063601460280000F0CCF870BDA34209D9D7
:1032F000216860188342F3D118685B684118216027
:10330000EEE713005A68002A01D0A242F9D91968E1
:103310005818A0420BD12068091858181960824229
:10332000E0D110685268411819605A60DAE7A0428B
:1033300002D90C232B60D5E721686018824203D1A3
:10334000106852684118216062605C60CAE7C0463C
:10335000A0000020032370B5CD1C9D430835060056
:103360000C2D1ED20C25A9421DD8300000F088F883
:10337000254A14682100002919D1244C2368002B08
:1033800003D1300000F06AF820602900300000F01E
:1033900065F8431C2BD10C233000336000F071F82A
:1033A00003E0002DDFDA0C233360002070BD0B68D2
:1033B0005B1B19D40B2B03D90B60CC18256003E0E1
:1033C0004B688C420DD11360300000F05AF8200099
:1033D00007220B30231D9043C31AE7D05A42E25014
:1033E000E4E763600C00EFE70C004968C3E70323E0
:1033F000C41C9C43A042E1D0211A300000F02EF8FA
:10340000431CDBD1C7E7C046A0000020A400002079
:10341000F8B507000D001600002905D11100FFF7CF
:1034200099FF04002000F8BD002A03D1FFF748FFF0
:103430003400F7E700F026F82C00B042F2D2310059
:103440003800FFF787FF041EECD029003200FFF799
:103450001AFF29003800FFF733FFE3E7002370B5B8
:10346000064C050008002360FCF7F6FF431C03D15F
:103470002368002B00D02B6070BDC046BC0100202B
:10348000704770470B1F1B68181F002B01DA0B5881
:10349000C0187047F8B5C046F8BC08BC9E467047D7
:0C34A000F8B5C046F8BC08BC9E4670475A
:1034AC00BC000020C0350008000000000000000037
:1034BC0001020304060708090000000001020304CE
:1034CC0002030405060708090A0B0C0D0E0F101059
:1034DC000102030405060708090A0B0C0D0E0F1058
:1034EC00497A206368696C6C206272616800000024
:1034FC004572726F7220647572696E6720526573C3
:10350C00756D65204F7065726174696F6E00000097
:10351C004572726F7220647572696E672041636BBD
:10352C0052657365740000005265766973696F6E3D
:10353C00207265616420617320257520200D0A00BE
:10354C005265736F2073657420617320257520623A
:10355C0079202575200D0A005265736F2072656104
:10356C0064206173202575206279202575200D0A51
:10357C00000000004461633A2025752C206D6170B9
:10358C003A202575200D0A0025752C202575200D57
:10359C000A00000048656C6C6F20576F726C640DEC
:1035AC000A000000693263204572726F72200D0AA6
:1035BC00000000005374617274757000232D302B61
:1035CC002000686C4C006566674546470030313218
:1035DC00333435363738394142434445460030316F
:1035EC0032333435363738396162636465660000CE
:0435FC00E9000008DA
:04360000C1000008FD
:10360400FC340008EC3400081C35000806060000F1
:1036140000127A00180000200000000000000000E2
:103624000000000000000000000000000000000096
:103634000000000000000000000000000000000086
:103644000000000000000000000000000000000076
:103654000000000000000000000000000000000066
:103664000000000000000000000000000000000056
:0836740000000000000000004E
:0400000508000405E6
:00000001FF
